:100000000C9434000C9451000C9451000C94510049
:100010000C9451000C9451000C9451000C9451001C
:100020000C9451000C9451000C9451000C949202C9
:100030000C9451000C9486020C9451000C945100C5
:100040000C9451000C946B020C9451000C945100D0
:100050000C9451000C9451000C9451000C945100DC
:100060000C94C2020C94510011241FBECFEFD8E0B3
:10007000DEBFCDBF12E0A0E0B1E0E0ECF6E002C0F0
:1000800005900D92A631B107D9F722E0A6E1B2E0C2
:1000900001C01D92A733B207E1F70E949A010C94A8
:1000A0005E030C94000090917B00692B60937B00B1
:1000B00097B161E070E0042E01C0660F0A94EAF780
:1000C0006095962397B930E4839FC0011124842B57
:1000D00080937C0080917C008F7D80937C004630F3
:1000E00028F480917E00682360937E00222329F00B
:1000F00080917A00886080937A0080917A00876886
:1001000080937A0080E0089580917A0080648093E3
:100110007A0080917A0084FFFCCF85E38A95F1F71D
:100120000000209178008091790090E0982F882736
:1001300088279370822BFB019183808380E0089550
:10014000813081F128F0823009F452C081E00895B5
:10015000483008F073C0613059F484B121E030E0D8
:1001600001C0220F4A95EAF7822B84B980E00895F6
:10017000862F8D7F09F064C034B181E090E001C02A
:10018000880F4A95EAF7282F2095232324B9623057
:1001900011F085E0089505B604FCFBCF95B1892BDD
:1001A00085B9E4CF473008F049C0613051F487B1D8
:1001B00021E030E001C0220F4A95EAF7822B87B98F
:1001C000D5CF862F8D7FE1F537B181E090E001C07A
:1001D000880F4A95EAF7282F2095232327B9623004
:1001E000C1F605B604FCD5CF98B1892B88B9BECF2E
:1001F000483020F5613051F48AB121E030E001C08F
:10020000220F4A95EAF7822B8AB9B0CF862F8D7FCD
:10021000B9F43AB181E090E001C0880F4A95EAF75D
:10022000282F209523232AB9623009F0B2CF05B6D2
:1002300004FCAFCF9BB1892B8BB998CF82E0089596
:1002400083E00895813059F128F0823009F44AC0E2
:1002500081E00895683008F067C024B181E090E043
:10026000062E02C0880F991F0A94E2F730E0282377
:10027000392302C0359527956A95E2F7213031057B
:1002800009F054C0413029F495B1892B85B980E03B
:10029000089541114DC095B180958923F7CF6730FE
:1002A00008F042C027B181E090E0062E02C0880F1E
:1002B000991F0A94E2F730E02823392302C03595CC
:1002C00027956A95E2F72130310581F5413021F417
:1002D00098B1892B88B9DBCF41112AC098B180959C
:1002E0008923F8CF683000F52AB181E090E0062E2E
:1002F00002C0880F991F0A94E2F730E028233923BF
:1003000002C0359527956A95E2F72130310571F4E1
:10031000413021F49BB1892B8BB9B9CF411108C071
:100320009BB180958923F8CF82E0089583E00895FA
:1003300084E0089540E060E080E00E94D3028FE313
:100340009CE90197F1F700C0000081E091E00E9474
:10035000070360E081E090E00E94130320E043E0A7
:1003600060E081E00E94530089E291E00E9407036F
:1003700060E081E090E00E94130342E061E080E0F1
:100380000E94A00087E691E00E94070360E081E000
:1003900090E00E94130340E061E080E00E94A00032
:1003A00080EA91E00E94070360E081E090E00E9413
:1003B000130340E060E080E00E94220140E062E040
:1003C00080E00E9422018FEF93E00E949E0287ED61
:1003D00091E00E94070360E081E090E00E94130337
:1003E000789489EE91E00E94070360E081E090E05C
:1003F0000E9413039FEF23ED80E391502040804043
:10040000E1F700C000008CEF91E00E94070360E07C
:1004100082E090E00E94130340E060E080E00E94F0
:10042000220141E062E080E00E94220160911A0214
:1004300070911B0283E00E948400E0911A02F09107
:100440001B024AE06CE172E0808191810E943403DA
:100450000E94070360E082E090E00E941303E091B5
:100460001A02F0911B028081918126E0880F991F6A
:100470002A95E1F74AE06CE172E081509C4F0E94BE
:1004800034030E94070360E082E090E00E941303BF
:10049000E0911A02F0911B028081918136E0880F71
:1004A000991F3A95E1F781509C4F0E94B10241E0BB
:1004B00060E080E00E94220140E062E080E00E9473
:1004C00022019FEF21EE84E0915020408040E1F72F
:1004D00000C00000A1CF1F920F920FB60F921124FF
:1004E0008F930DB406FE0EC08EB580931702109246
:1004F000170281E0809316028F910F900FBE0F902C
:100500001F9018958EB580931702F3CF1F920F920C
:100510000FB60F921124109219020F900FBE0F9078
:100520001F9018951F920F920FB60F9211241092E0
:1005300018020F900FBE0F901F90189580933502F0
:1005400090933602219A22E020936F0090938900C5
:100550008093880080E4809380008BE0809381000A
:10056000089521E02093180220911802211105C05E
:10057000809335029093360208959093890080937A
:100580008800F2CF1F920F920FB60F9211248F9313
:100590008091B900887F809300018F910F900FBEEA
:1005A0000F901F9018951092C50098E09093C4008A
:1005B000813011F1B0F08230D1F0662351F080919A
:1005C000C10080648093C1008091C10080628093EB
:1005D000C10080E1489FA001112446604093C20001
:1005E00008958091C10088608093C100E6CF80911A
:1005F000C10088608093C1008091C1008061F4CF08
:100600009091C00095FFFCCF8093C6000895CF93D2
:10061000DF93EC018991811103C0DF91CF9108959F
:100620000E940003F7CFEF92FF921F93CF93DF93C7
:100630007C01162FD0E0C0E0CE15DF0554F0112369
:1006400069F08DE0DF91CF911F91FF90EF900C94B6
:1006500000038AE00E9400032196EECFDF91CF9144
:100660001F91FF90EF900895BB27FB015527AA2704
:10067000880F991FAA1FA41710F0A41B839550512F
:10068000B9F7A05DAA3308F0A95DA193009779F7A7
:10069000B111B1931192CB010C944E03DC01FC011A
:1006A000672F71917723E1F7329704C07C916D93A6
:1006B00070836291AE17BF07C8F30895F894FFCF17
:1006C000F85541525420636F6E66696775726564B0
:1006D000206173206F75747075742040203131353E
:1006E00032303020626175640041444320696E6994
:1006F0007469616C697A656420746F2072656164E5
:100700002066726F6D2050433620776974682061CF
:100710006E616C6F6720564343206173207265667B
:100720006572656E636500536869667420726567FB
:1007300069737465722073657269616C2064617499
:10074000612070696E2050423720696E697469615A
:100750006C697A6564206173206F757470757400BC
:100760005368696674207265676973746572207373
:10077000746F72616765206C617463682070696E64
:1007800020696E697469616C697A6564206173209F
:100790006F7574707574005352434C4B20696E69C9
:1007A0007469616C697A656400496E74657272750A
:1007B00070747320656E61626C656400496E697463
:1007C00069616C697A6174696F6E20636F6D706CBA
:0607D0006574652E0000B7
:00000001FF
